S00C000061736B342E73726563A5
S11300000C9448000C945A000C945A000C945A0016
S11300100C945A000C945A000C945A000C94E3006B
S11300200C945A000C9411020C945A000C945A002B
S11300300C945A000C945A000C945A000C945A00D4
S11300400C945A000C945A000C945A000C945A00C4
S11300500C945A000C945A000C945A000C94FC0012
S11300600C945A000C945A000C945A000C945A00A4
S11300700C945A000C94E0010C945A000C945A000D
S11300800C945A000C945A000C945A000C945A0084
S113009011241FBECFEFCDBFDFE3DEBF28E2A0E017
S11300A0B8E201C01D92AA30B207E1F70E945C00D9
S11300B00C945B020C940000E0E6F4E08081816023
S11300C08083848181608483E0EAF4E085898960A7
S11300D0858B86898960868BE0E0FAE081E08287FF
S11300E0828580618287E0E0F6E08681876086838E
S11300F0848581608487828993898A60828B938BCB
S11301008285826082878481816084837894FFCF32
S11301108091002890910128009719F08230910570
S1130120D1F42091A904203221F02091A904203691
S113013049F40196809300289093012880E28093EB
S1130140A90424C01092002810920128E0EAF4E0E7
S1130150818581871BC08130910519F08330910519
S1130160A9F42091A904203449F40196809300282D
S11301709093012880E48093A90408C01092002879
S113018010920128E0EAF4E08185818780910028BB
S1130190909101280497B1F410920028109201283C
S11301A0E0E0FAE011828EE0808310A211A283E0E5
S11301B090E080A791A7808181608083E0EAF4E0E9
S11301C08185818708951F920F920FB60F92112493
S11301D08F93EF93FF93F894E0E0FAE083858387AD
S11301E081E0809366047894FF91EF918F910F9052
S11301F00FBE0F901F9018951F920F920FB60F927B
S113020011248F939F93AF93BF93EF93FF93F8942D
S1130210A0E0B6E01A961C921A9781E080936604D7
S113022081E090E080930628909307288093022829
S113023090930328E0E0FAE011828EE0808310A21C
S113024011A283E090E080A791A7808181608083E0
S11302501B968C911B971B968C937894FF91EF912E
S1130260BF91AF919F918F910F900FBE0F901F90F0
S113027018951092022810920328809108289091D2
S113028009280196809308289093092881E090E03A
S11302908093042890930528E0E0FAE0108210A2ED
S11302A011A28EE0808386E090E086A397A383E08A
S11302B090E080A791A781818360818380818160A0
S11302C0808308958091082890910928039711F458
S11302D00E9439018091002890910128009719F01B
S11302E08230910519F52091A904203221F0209142
S11302F0A904203649F4019680930028909301289C
S113030080E28093A90436C080910828909109283E
S1130310019680930828909309281092002810923F
S11303200128E0EAF4E08185818724C081309105C9
S113033019F083309105F1F42091A904203449F493
S11303400196809300289093012880E48093A90467
S113035011C080910828909109280196809308285B
S1130360909309281092002810920128E0EAF4E002
S11303708185818780910028909101280497F9F460
S11303801092082810920928109206281092072823
S11303901092042810920528109202281092032823
S11303A01092002810920128109200061092000A60
S11303B081E080936404E0EAF4E081858187089514
S11303C01F920F920FB60F9211242F933F934F93C6
S11303D05F936F937F938F939F93AF93BF93EF93A9
S11303E0FF93F8948091062890910728009719F4B8
S11303F00E94880004C0019711F40E94620178945D
S1130400FF91EF91BF91AF919F918F917F916F91E8
S11304105F914F913F912F910F900FBE0F901F90BE
S113042018951F920F920FB60F9211242F933F939A
S11304304F935F936F937F938F939F93AF93BF93E8
S1130440EF93FF93F89480910228909103280197E9
S113045011F40E9439018091042890910528892B78
S113046089F4E0E0F6E0828582608287808180837F
S113047080818260808380818160808380858160C7
S1130480808703C081E080936404E0E0FAE0838520
S113049083877894FF91EF91BF91AF919F918F9152
S11304A07F916F915F914F913F912F910F900FBE6C
S10D04B00F901F901895F894FFCFE9
S9030000FC
