:100000000C9448000C9452000C9452000C94520032
:100010000C9452000C9452000C9452000C94520018
:100020000C9452000C9452000C9452000C94520008
:100030000C9452000C9452000C9452000C945200F8
:100040000C9452000C9452000C9452000C945200E8
:100050000C9452000C9452000C9452000C948100A9
:100060000C9452000C9452000C9452000C945200C8
:100070000C9452000C949C000C9452000C9452006E
:100080000C9452000C9452000C9452000C945200A8
:1000900011241FBECFEFCDBFDFE3DEBF0E945400AF
:1000A0000C94B7000C940000E0E6F4E080818760D7
:1000B0008083848187608483E0EAF4E085898960B5
:1000C000858BE0E0F6E080818083808182608083A0
:1000D000808181608083868187608683848581605A
:1000E0008487828993898A60828B938B82858260E0
:1000F0008287848181608483789480858160808711
:10010000FFCF1F920F920FB60F9211248F93EF9390
:10011000FF93E0E0F6E083858387E0E6F4E082E0A9
:100120008683848182608483FF91EF918F910F9009
:100130000FBE0F901F9018951F920F920FB60F923F
:1001400011248F93EF93FF93E0EAF4E08185818798
:10015000E0E6F4E084818760848387E08683FF9112
:10016000EF918F910F900FBE0F901F901895F894FC
:02017000FFCFBF
:00000001FF
