S00F0000504D5F61736B312E73726563A9
S11300000C9448000C945A000C945A000C945A0016
S11300100C945A000C945A000C945A000C945A00F4
S11300200C945A000C94C4000C945A000C945A007A
S11300300C945A000C945A000C945A000C945A00D4
S11300400C945A000C945A000C945A000C945A00C4
S11300500C945A000C945A000C945A000C945A00B4
S11300600C945A000C945A000C945A000C945A00A4
S11300700C945A000C949A000C945A000C945A0054
S11300800C945A000C945A000C945A000C945A0084
S113009011241FBECFEFCDBFDFE3DEBF28E2A0E017
S11300A0B8E201C01D92A430B207E1F70E945C00DF
S11300B00C94EE000C940000E0E6F4E0808187608C
S11300C0808384818760848384E08683E0EAF4E02B
S11300D085898960858BE0E0FAE081E0838310A262
S11300E098E290A7818311A28AE081A790E191838D
S11300F08EE080838081816080839287789410C0B1
S113010084E0809366048091002890910128892BD3
S1130110B9F3E0E6F4E084818560848384E0868337
S11301208091022890910328892B69F3F89480E048
S113013090E008951F920F920FB60F9211248F939F
S11301409F93EF93FF939895F894E0EAF4E0818508
S11301508187E0E6F4E084818760848381E086839C
S11301608091290A8111FCCF81E090E080930028DE
S1130170909301287894FF91EF919F918F910F9024
S11301800FBE0F901F9018951F920F920FB60F92EB
S113019011248F939F93EF93FF939895F894E0E045
S11301A0FAE083858387E0E6F4E0848187608483D2
S11301B083E086838091290A8111FCCF81E090E05D
S11301C080930228909303287894FF91EF919F9154
S11301D08F910F900FBE0F901F901895F894FFCF3A
S9030000FC
