:100000000C9448000C9452000C9452000C94520032
:100010000C9452000C9452000C9452000C94520018
:100020000C9452000C9452000C9452000C94520008
:100030000C9452000C9452000C9452000C945200F8
:100040000C9452000C9452000C9452000C945200E8
:100050000C9452000C9452000C9452000C945200D8
:100060000C9452000C9452000C9452000C945200C8
:100070000C9452000C9452000C9452000C945200B8
:100080000C9452000C9452000C9452000C945200A8
:1000900011241FBECFEFCDBFDFE3DEBF0E945400AF
:1000A0000C9470000C940000E0E6F4E08081826023
:1000B0008083848182608483E0E6F4E082E086834A
:1000C00081EE94E00197F1F700C000008481826026
:1000D000848381EE94E00197F1F700C00000ECCF3B
:0400E000F894FFCFC2
:00000001FF
