:100000000C9448000C945A000C945A000C945A001A
:100010000C945A000C945A000C945A000C945A00F8
:100020000C9471010C942C010C945A000C945A00FD
:100030000C945A000C945A000C945A000C945A00D8
:100040000C945A000C945A000C945A000C945A00C8
:100050000C945A000C945A000C945A000C945A00B8
:100060000C945A000C945A000C945A000C945A00A8
:100070000C945A000C94E7000C945A000C945A000B
:100080000C945A000C945A000C945A000C945A0088
:1000900011241FBECFEFCDBFDFE3DEBF28E2A0E01B
:1000A000B8E201C01D92A630B207E1F70E945C00E1
:1000B0000C94B6010C940000CF93DF93CDB7DEB75C
:1000C00080E694E020E634E0F90120812760FC011D
:1000D000208380E694E020E634E0F9012481276063
:1000E000FC01248380E694E024E0FC01268380EA7E
:1000F00094E020EA34E0F90125892960FC01258B90
:10010000789480E09AE021E0FC01238380E09AE08B
:10011000FC01118280E09AE022E0FC0120A380E053
:100120009AE0FC0110A680E09AE02EE0FC0120831A
:1001300080E09AE020E03AE0F90120812160FC01B2
:10014000208380E09AE020E1FC01228780E09AE0B1
:1001500022E0FC01228734C080E694E024E0FC0128
:1001600026838091042890910528892BA9F380E6A5
:1001700094E020E634E0F90124812560FC01248329
:1001800080E694E024E0FC0126838091042890918D
:1001900005280197A9F48091022890910328892BC2
:1001A00079F4F89480E09AE021E0FC0121A380E05A
:1001B0009AE0FC0111A61092042810920528789468
:1001C0008091022890910328892B59F2C4CF1F9265
:1001D0000F9200903F000F9211242F933F938F9323
:1001E0009F93EF93FF93CF93DF9300D0CDB7DEB70C
:1001F000F89480EA94E0FC018185882F90E089835F
:100200009A8380EA94E02981FC01218780E694E0CA
:1002100020E634E0F90124812760FC01248380E694
:1002200094E021E0FC01268381E090E080930428A3
:1002300090930528789400000F900F90DF91CF9154
:10024000FF91EF919F918F913F912F910F9000928D
:100250003F000F901F9018951F920F9200903F0043
:100260000F9211242F933F938F939F93EF93FF93BC
:10027000CF93DF9300D0CDB7DEB7F89480E09AE05B
:10028000FC018385882F90E089839A8380E09AE03F
:100290002981FC01238780E694E020E634E0F9011F
:1002A00024812760FC01248380E694E023E0FC01A4
:1002B000268381E090E0809302289093032878942D
:1002C00000000F900F90DF91CF91FF91EF919F91E0
:1002D0008F913F912F910F9000923F000F901F90B0
:1002E00018951F920F9200903F000F9211242F93A8
:1002F0003F938F939F93EF93FF93CF93DF9300D020
:10030000CDB7DEB7F89480E09AE0FC018385882FB2
:1003100090E089839A8380E09AE02981FC01238719
:1003200080E694E020E634E0F90124812760FC01B6
:10033000248380E694E023E0FC01268381E090E0C2
:100340008093002890930128789400000F900F90DC
:10035000DF91CF91FF91EF919F918F913F912F91DD
:100360000F9000923F000F901F901895F894FFCFC8
:00000001FF
